{
    "contractName": "GameLogic",
    "abi": [
        {
            "inputs": [
                {
                    "internalType": "uint256",
                    "name": "_feeToOpenSession",
                    "type": "uint256"
                },
                {
                    "internalType": "address",
                    "name": "_vrfCoordinator",
                    "type": "address"
                },
                {
                    "internalType": "address",
                    "name": "_linkToken",
                    "type": "address"
                },
                {
                    "internalType": "uint256",
                    "name": "_vrfFee",
                    "type": "uint256"
                },
                {
                    "internalType": "bytes32",
                    "name": "_keyHash",
                    "type": "bytes32"
                },
                {
                    "internalType": "string",
                    "name": "_uri",
                    "type": "string"
                }
            ],
            "stateMutability": "nonpayable",
            "type": "constructor"
        },
        {
            "anonymous": false,
            "inputs": [
                {
                    "indexed": true,
                    "internalType": "address",
                    "name": "account",
                    "type": "address"
                },
                {
                    "indexed": true,
                    "internalType": "address",
                    "name": "operator",
                    "type": "address"
                },
                {
                    "indexed": false,
                    "internalType": "bool",
                    "name": "approved",
                    "type": "bool"
                }
            ],
            "name": "ApprovalForAll",
            "type": "event"
        },
        {
            "anonymous": false,
            "inputs": [
                {
                    "indexed": true,
                    "internalType": "address",
                    "name": "_player",
                    "type": "address"
                },
                {
                    "indexed": true,
                    "internalType": "uint256",
                    "name": "sessionId",
                    "type": "uint256"
                }
            ],
            "name": "PlayerClosesSession",
            "type": "event"
        },
        {
            "anonymous": false,
            "inputs": [
                {
                    "indexed": true,
                    "internalType": "address",
                    "name": "_player",
                    "type": "address"
                },
                {
                    "indexed": true,
                    "internalType": "uint256",
                    "name": "sessionId",
                    "type": "uint256"
                }
            ],
            "name": "PlayerOpenSession",
            "type": "event"
        },
        {
            "anonymous": false,
            "inputs": [
                {
                    "indexed": true,
                    "internalType": "address",
                    "name": "_player",
                    "type": "address"
                },
                {
                    "indexed": true,
                    "internalType": "bytes32",
                    "name": "_requestId",
                    "type": "bytes32"
                }
            ],
            "name": "RandomFulfilled",
            "type": "event"
        },
        {
            "anonymous": false,
            "inputs": [
                {
                    "indexed": true,
                    "internalType": "address",
                    "name": "_player",
                    "type": "address"
                },
                {
                    "indexed": true,
                    "internalType": "bytes32",
                    "name": "_requestId",
                    "type": "bytes32"
                }
            ],
            "name": "RequestRandom",
            "type": "event"
        },
        {
            "anonymous": false,
            "inputs": [
                {
                    "indexed": true,
                    "internalType": "address",
                    "name": "operator",
                    "type": "address"
                },
                {
                    "indexed": true,
                    "internalType": "address",
                    "name": "from",
                    "type": "address"
                },
                {
                    "indexed": true,
                    "internalType": "address",
                    "name": "to",
                    "type": "address"
                },
                {
                    "indexed": false,
                    "internalType": "uint256[]",
                    "name": "ids",
                    "type": "uint256[]"
                },
                {
                    "indexed": false,
                    "internalType": "uint256[]",
                    "name": "values",
                    "type": "uint256[]"
                }
            ],
            "name": "TransferBatch",
            "type": "event"
        },
        {
            "anonymous": false,
            "inputs": [
                {
                    "indexed": true,
                    "internalType": "address",
                    "name": "operator",
                    "type": "address"
                },
                {
                    "indexed": true,
                    "internalType": "address",
                    "name": "from",
                    "type": "address"
                },
                {
                    "indexed": true,
                    "internalType": "address",
                    "name": "to",
                    "type": "address"
                },
                {
                    "indexed": false,
                    "internalType": "uint256",
                    "name": "id",
                    "type": "uint256"
                },
                {
                    "indexed": false,
                    "internalType": "uint256",
                    "name": "value",
                    "type": "uint256"
                }
            ],
            "name": "TransferSingle",
            "type": "event"
        },
        {
            "anonymous": false,
            "inputs": [
                {
                    "indexed": false,
                    "internalType": "string",
                    "name": "value",
                    "type": "string"
                },
                {
                    "indexed": true,
                    "internalType": "uint256",
                    "name": "id",
                    "type": "uint256"
                }
            ],
            "name": "URI",
            "type": "event"
        },
        {
            "inputs": [
                {
                    "internalType": "address",
                    "name": "account",
                    "type": "address"
                },
                {
                    "internalType": "uint256",
                    "name": "id",
                    "type": "uint256"
                }
            ],
            "name": "balanceOf",
            "outputs": [
                {
                    "internalType": "uint256",
                    "name": "",
                    "type": "uint256"
                }
            ],
            "stateMutability": "view",
            "type": "function"
        },
        {
            "inputs": [
                {
                    "internalType": "address[]",
                    "name": "accounts",
                    "type": "address[]"
                },
                {
                    "internalType": "uint256[]",
                    "name": "ids",
                    "type": "uint256[]"
                }
            ],
            "name": "balanceOfBatch",
            "outputs": [
                {
                    "internalType": "uint256[]",
                    "name": "",
                    "type": "uint256[]"
                }
            ],
            "stateMutability": "view",
            "type": "function"
        },
        {
            "inputs": [
                {
                    "internalType": "address",
                    "name": "_player",
                    "type": "address"
                }
            ],
            "name": "getPlayerCancelationSessionsCount",
            "outputs": [
                {
                    "internalType": "uint256",
                    "name": "",
                    "type": "uint256"
                }
            ],
            "stateMutability": "view",
            "type": "function"
        },
        {
            "inputs": [
                {
                    "internalType": "address",
                    "name": "_player",
                    "type": "address"
                }
            ],
            "name": "getPlayerLossesCount",
            "outputs": [
                {
                    "internalType": "uint256",
                    "name": "",
                    "type": "uint256"
                }
            ],
            "stateMutability": "view",
            "type": "function"
        },
        {
            "inputs": [
                {
                    "internalType": "address",
                    "name": "_player",
                    "type": "address"
                }
            ],
            "name": "getPlayerSessionsCount",
            "outputs": [
                {
                    "internalType": "uint256",
                    "name": "",
                    "type": "uint256"
                }
            ],
            "stateMutability": "view",
            "type": "function"
        },
        {
            "inputs": [
                {
                    "internalType": "address",
                    "name": "_player",
                    "type": "address"
                }
            ],
            "name": "getPlayerWinsCount",
            "outputs": [
                {
                    "internalType": "uint256",
                    "name": "",
                    "type": "uint256"
                }
            ],
            "stateMutability": "view",
            "type": "function"
        },
        {
            "inputs": [
                {
                    "internalType": "address",
                    "name": "_player",
                    "type": "address"
                }
            ],
            "name": "hasRewardsToBeCollected",
            "outputs": [
                {
                    "internalType": "bool",
                    "name": "",
                    "type": "bool"
                }
            ],
            "stateMutability": "view",
            "type": "function"
        },
        {
            "inputs": [
                {
                    "internalType": "address",
                    "name": "account",
                    "type": "address"
                },
                {
                    "internalType": "address",
                    "name": "operator",
                    "type": "address"
                }
            ],
            "name": "isApprovedForAll",
            "outputs": [
                {
                    "internalType": "bool",
                    "name": "",
                    "type": "bool"
                }
            ],
            "stateMutability": "view",
            "type": "function"
        },
        {
            "inputs": [
                {
                    "internalType": "address",
                    "name": "_player",
                    "type": "address"
                }
            ],
            "name": "isPlayerPlaying",
            "outputs": [
                {
                    "internalType": "bool",
                    "name": "",
                    "type": "bool"
                }
            ],
            "stateMutability": "view",
            "type": "function"
        },
        {
            "inputs": [
                {
                    "internalType": "bytes32",
                    "name": "requestId",
                    "type": "bytes32"
                },
                {
                    "internalType": "uint256",
                    "name": "randomness",
                    "type": "uint256"
                }
            ],
            "name": "rawFulfillRandomness",
            "outputs": [],
            "stateMutability": "nonpayable",
            "type": "function"
        },
        {
            "inputs": [
                {
                    "internalType": "address",
                    "name": "from",
                    "type": "address"
                },
                {
                    "internalType": "address",
                    "name": "to",
                    "type": "address"
                },
                {
                    "internalType": "uint256[]",
                    "name": "ids",
                    "type": "uint256[]"
                },
                {
                    "internalType": "uint256[]",
                    "name": "amounts",
                    "type": "uint256[]"
                },
                {
                    "internalType": "bytes",
                    "name": "data",
                    "type": "bytes"
                }
            ],
            "name": "safeBatchTransferFrom",
            "outputs": [],
            "stateMutability": "nonpayable",
            "type": "function"
        },
        {
            "inputs": [
                {
                    "internalType": "address",
                    "name": "from",
                    "type": "address"
                },
                {
                    "internalType": "address",
                    "name": "to",
                    "type": "address"
                },
                {
                    "internalType": "uint256",
                    "name": "id",
                    "type": "uint256"
                },
                {
                    "internalType": "uint256",
                    "name": "amount",
                    "type": "uint256"
                },
                {
                    "internalType": "bytes",
                    "name": "data",
                    "type": "bytes"
                }
            ],
            "name": "safeTransferFrom",
            "outputs": [],
            "stateMutability": "nonpayable",
            "type": "function"
        },
        {
            "inputs": [
                {
                    "internalType": "address",
                    "name": "operator",
                    "type": "address"
                },
                {
                    "internalType": "bool",
                    "name": "approved",
                    "type": "bool"
                }
            ],
            "name": "setApprovalForAll",
            "outputs": [],
            "stateMutability": "nonpayable",
            "type": "function"
        },
        {
            "inputs": [
                {
                    "internalType": "bytes4",
                    "name": "interfaceId",
                    "type": "bytes4"
                }
            ],
            "name": "supportsInterface",
            "outputs": [
                {
                    "internalType": "bool",
                    "name": "",
                    "type": "bool"
                }
            ],
            "stateMutability": "view",
            "type": "function"
        },
        {
            "inputs": [
                {
                    "internalType": "uint256",
                    "name": "",
                    "type": "uint256"
                }
            ],
            "name": "uri",
            "outputs": [
                {
                    "internalType": "string",
                    "name": "",
                    "type": "string"
                }
            ],
            "stateMutability": "view",
            "type": "function"
        }
    ],
    "bytecode": "60c06040523480156200001157600080fd5b5060405162001bed38038062001bed83398101604081905262000034916200016e565b8484828062000043816200007c565b50506001600160a01b0391821660a0521660805250600c55600d555050600355600580546001600160781b0319166007179055620002cc565b80516200009190600290602084019062000095565b5050565b828054620000a3906200028f565b90600052602060002090601f016020900481019282620000c7576000855562000112565b82601f10620000e257805160ff191683800117855562000112565b8280016001018555821562000112579182015b8281111562000112578251825591602001919060010190620000f5565b506200012092915062000124565b5090565b5b8082111562000120576000815560010162000125565b80516001600160a01b03811681146200015357600080fd5b919050565b634e487b7160e01b600052604160045260246000fd5b60008060008060008060c087890312156200018857600080fd5b8651955060206200019b8189016200013b565b9550620001ab604089016200013b565b606089015160808a015160a08b015192975090955093506001600160401b0380821115620001d857600080fd5b818a0191508a601f830112620001ed57600080fd5b81518181111562000202576200020262000158565b604051601f8201601f19908116603f011681019083821181831017156200022d576200022d62000158565b816040528281528d868487010111156200024657600080fd5b600093505b828410156200026a57848401860151818501870152928501926200024b565b828411156200027c5760008684830101525b8096505050505050509295509295509295565b600181811c90821680620002a457607f821691505b60208210811415620002c657634e487b7160e01b600052602260045260246000fd5b50919050565b60805160a0516118fe620002ef600039600061068d0152600050506118fe6000f3fe608060405234801561001057600080fd5b50600436106100f45760003560e01c80634e1273f411610097578063c477620a11610066578063c477620a14610256578063d2193edc1461027f578063e985e9c514610292578063f242432a146102ce57600080fd5b80634e1273f4146101e257806394985ddd14610202578063a22cb46514610215578063a714fb601461022857600080fd5b80631a0943b2116100d35780631a0943b21461016257806324f21130146101755780632eb2c2d6146101a157806338e4af64146101b657600080fd5b8062fdd58e146100f957806301ffc9a71461011f5780630e89341c14610142575b600080fd5b61010c61010736600461107d565b6102e1565b6040519081526020015b60405180910390f35b61013261012d3660046110c0565b610378565b6040519015158152602001610116565b6101556101503660046110dd565b6103ca565b6040516101169190611152565b610132610170366004611165565b61045e565b61010c610183366004611165565b6001600160a01b031660009081526006602052604090206001015490565b6101b46101af3660046112cc565b6104c1565b005b61010c6101c4366004611165565b6001600160a01b031660009081526006602052604090206002015490565b6101f56101f0366004611376565b610558565b604051610116919061147c565b6101b461021036600461148f565b610682565b6101b46102233660046114b1565b610708565b610132610236366004611165565b6001600160a01b0316600090815260066020526040902060030154151590565b61010c610264366004611165565b6001600160a01b031660009081526006602052604090205490565b61010c61028d366004611165565b6107df565b6101326102a03660046114ed565b6001600160a01b03918216600090815260016020908152604080832093909416825291909152205460ff1690565b6101b46102dc366004611520565b610818565b60006001600160a01b0383166103525760405162461bcd60e51b815260206004820152602b60248201527f455243313135353a2062616c616e636520717565727920666f7220746865207a60448201526a65726f206164647265737360a81b60648201526084015b60405180910390fd5b506000908152602081815260408083206001600160a01b03949094168352929052205490565b60006001600160e01b03198216636cdb3d1360e11b14806103a957506001600160e01b031982166303a24d0760e21b145b806103c457506301ffc9a760e01b6001600160e01b03198316145b92915050565b6060600280546103d990611585565b80601f016020809104026020016040519081016040528092919081815260200182805461040590611585565b80156104525780601f1061042757610100808354040283529160200191610452565b820191906000526020600020905b81548152906001019060200180831161043557829003601f168201915b50505050509050919050565b6001600160a01b03811660009081526006602052604081206003015480158015906104ba575060008181526007602052604090206002015460ff16806104ba5750600081815260076020526040902060020154610100900460ff165b9392505050565b6001600160a01b0385163314806104dd57506104dd85336102a0565b6105445760405162461bcd60e51b815260206004820152603260248201527f455243313135353a207472616e736665722063616c6c6572206973206e6f74206044820152711bdddb995c881b9bdc88185c1c1c9bdd995960721b6064820152608401610349565b610551858585858561089f565b5050505050565b606081518351146105bd5760405162461bcd60e51b815260206004820152602960248201527f455243313135353a206163636f756e747320616e6420696473206c656e677468604482015268040dad2e6dac2e8c6d60bb1b6064820152608401610349565b6000835167ffffffffffffffff8111156105d9576105d9611180565b604051908082528060200260200182016040528015610602578160200160208202803683370190505b50905060005b845181101561067a5761064d858281518110610626576106266115c0565b6020026020010151858381518110610640576106406115c0565b60200260200101516102e1565b82828151811061065f5761065f6115c0565b6020908102919091010152610673816115ec565b9050610608565b509392505050565b336001600160a01b037f000000000000000000000000000000000000000000000000000000000000000016146106fa5760405162461bcd60e51b815260206004820152601f60248201527f4f6e6c7920565246436f6f7264696e61746f722063616e2066756c66696c6c006044820152606401610349565b6107048282610a7c565b5050565b336001600160a01b03831614156107735760405162461bcd60e51b815260206004820152602960248201527f455243313135353a2073657474696e6720617070726f76616c20737461747573604482015268103337b91039b2b63360b91b6064820152608401610349565b3360008181526001602090815260408083206001600160a01b03871680855290835292819020805460ff191686151590811790915590519081529192917f17307eab39ab6107e8899845ad3d59bd9653f200f220920489ca2b5937696c31910160405180910390a35050565b6001600160a01b0381166000908152600660205260408120600281015460018201549154909161080e91611607565b6103c49190611607565b6001600160a01b038516331480610834575061083485336102a0565b6108925760405162461bcd60e51b815260206004820152602960248201527f455243313135353a2063616c6c6572206973206e6f74206f776e6572206e6f7260448201526808185c1c1c9bdd995960ba1b6064820152608401610349565b6105518585858585610cd9565b81518351146109015760405162461bcd60e51b815260206004820152602860248201527f455243313135353a2069647320616e6420616d6f756e7473206c656e677468206044820152670dad2e6dac2e8c6d60c31b6064820152608401610349565b6001600160a01b0384166109275760405162461bcd60e51b81526004016103499061161f565b3360005b8451811015610a0e576000858281518110610948576109486115c0565b602002602001015190506000858381518110610966576109666115c0565b602090810291909101810151600084815280835260408082206001600160a01b038e1683529093529190912054909150818110156109b65760405162461bcd60e51b815260040161034990611664565b6000838152602081815260408083206001600160a01b038e8116855292528083208585039055908b168252812080548492906109f3908490611607565b9250508190555050505080610a07906115ec565b905061092b565b50846001600160a01b0316866001600160a01b0316826001600160a01b03167f4a39dc06d4c0dbc64b70af90fd698a233a518aa5d07e595d983b8c0526c8f7fb8787604051610a5e9291906116ae565b60405180910390a4610a74818787878787610dff565b505050505050565b6000828152600e602090815260408083206002810154825193840186905260019284019290925292916060016040516020818303038152906040528051906020012060001c610acb91906116dc565b610ad6906001611607565b82546001600160a01b03166000818152600660209081526040808320600381018054855260078452828520868652600f855283862095909555548454600186015484519586019290925284840152606084015260808084018790528251808503909101815260a0909301918290529495509293928590600a90610b5a9084906116fe565b9081526040519081900360200190205560018601548514610c81576005546001830154600160781b9091046001600160781b03161415610c65576040805160208082018a9052600282840152825180830384018152606083018452805191012060038601548554608084019190915260a0808401919091528351808403909101815260c090920190925281600982604051610bf591906116fe565b9081526040519081900360200190205560055484546001600160781b039091161415610c445760028401805461ff0019166101001790558454856000610c3a836115ec565b9190505550610c5e565b6001848101558354846000610c58836115ec565b91905055505b5050610c99565b600182018054906000610c77836115ec565b9190505550610c99565b600183018054906000610c93836115ec565b91905055505b60405188906001600160a01b038616907f41c951f5238dcd9b031e046c0ccade18c8527bf7f1a05056c805449ba7c33bfb90600090a35050505050505050565b6001600160a01b038416610cff5760405162461bcd60e51b81526004016103499061161f565b33610d18818787610d0f88610f5b565b61055188610f5b565b6000848152602081815260408083206001600160a01b038a16845290915290205483811015610d595760405162461bcd60e51b815260040161034990611664565b6000858152602081815260408083206001600160a01b038b8116855292528083208785039055908816825281208054869290610d96908490611607565b909155505060408051868152602081018690526001600160a01b03808916928a821692918616917fc3d58168c5ae7397731d063d5bbf3d657854427343f4c083240f7aacaa2d0f62910160405180910390a4610df6828888888888610fa6565b50505050505050565b6001600160a01b0384163b15610a745760405163bc197c8160e01b81526001600160a01b0385169063bc197c8190610e43908990899088908890889060040161171a565b6020604051808303816000875af1925050508015610e7e575060408051601f3d908101601f19168201909252610e7b91810190611778565b60015b610f2b57610e8a611795565b806308c379a01415610ec45750610e9f6117b1565b80610eaa5750610ec6565b8060405162461bcd60e51b81526004016103499190611152565b505b60405162461bcd60e51b815260206004820152603460248201527f455243313135353a207472616e7366657220746f206e6f6e20455243313135356044820152732932b1b2b4bb32b91034b6b83632b6b2b73a32b960611b6064820152608401610349565b6001600160e01b0319811663bc197c8160e01b14610df65760405162461bcd60e51b81526004016103499061183b565b60408051600180825281830190925260609160009190602080830190803683370190505090508281600081518110610f9557610f956115c0565b602090810291909101015292915050565b6001600160a01b0384163b15610a745760405163f23a6e6160e01b81526001600160a01b0385169063f23a6e6190610fea9089908990889088908890600401611883565b6020604051808303816000875af1925050508015611025575060408051601f3d908101601f1916820190925261102291810190611778565b60015b61103157610e8a611795565b6001600160e01b0319811663f23a6e6160e01b14610df65760405162461bcd60e51b81526004016103499061183b565b80356001600160a01b038116811461107857600080fd5b919050565b6000806040838503121561109057600080fd5b61109983611061565b946020939093013593505050565b6001600160e01b0319811681146110bd57600080fd5b50565b6000602082840312156110d257600080fd5b81356104ba816110a7565b6000602082840312156110ef57600080fd5b5035919050565b60005b838110156111115781810151838201526020016110f9565b83811115611120576000848401525b50505050565b6000815180845261113e8160208601602086016110f6565b601f01601f19169290920160200192915050565b6020815260006104ba6020830184611126565b60006020828403121561117757600080fd5b6104ba82611061565b634e487b7160e01b600052604160045260246000fd5b601f8201601f1916810167ffffffffffffffff811182821017156111bc576111bc611180565b6040525050565b600067ffffffffffffffff8211156111dd576111dd611180565b5060051b60200190565b600082601f8301126111f857600080fd5b81356020611205826111c3565b6040516112128282611196565b83815260059390931b850182019282810191508684111561123257600080fd5b8286015b8481101561124d5780358352918301918301611236565b509695505050505050565b600082601f83011261126957600080fd5b813567ffffffffffffffff81111561128357611283611180565b60405161129a601f8301601f191660200182611196565b8181528460208386010111156112af57600080fd5b816020850160208301376000918101602001919091529392505050565b600080600080600060a086880312156112e457600080fd5b6112ed86611061565b94506112fb60208701611061565b9350604086013567ffffffffffffffff8082111561131857600080fd5b61132489838a016111e7565b9450606088013591508082111561133a57600080fd5b61134689838a016111e7565b9350608088013591508082111561135c57600080fd5b5061136988828901611258565b9150509295509295909350565b6000806040838503121561138957600080fd5b823567ffffffffffffffff808211156113a157600080fd5b818501915085601f8301126113b557600080fd5b813560206113c2826111c3565b6040516113cf8282611196565b83815260059390931b85018201928281019150898411156113ef57600080fd5b948201945b838610156114145761140586611061565b825294820194908201906113f4565b9650508601359250508082111561142a57600080fd5b50611437858286016111e7565b9150509250929050565b600081518084526020808501945080840160005b8381101561147157815187529582019590820190600101611455565b509495945050505050565b6020815260006104ba6020830184611441565b600080604083850312156114a257600080fd5b50508035926020909101359150565b600080604083850312156114c457600080fd5b6114cd83611061565b9150602083013580151581146114e257600080fd5b809150509250929050565b6000806040838503121561150057600080fd5b61150983611061565b915061151760208401611061565b90509250929050565b600080600080600060a0868803121561153857600080fd5b61154186611061565b945061154f60208701611061565b93506040860135925060608601359150608086013567ffffffffffffffff81111561157957600080fd5b61136988828901611258565b600181811c9082168061159957607f821691505b602082108114156115ba57634e487b7160e01b600052602260045260246000fd5b50919050565b634e487b7160e01b600052603260045260246000fd5b634e487b7160e01b600052601160045260246000fd5b6000600019821415611600576116006115d6565b5060010190565b6000821982111561161a5761161a6115d6565b500190565b60208082526025908201527f455243313135353a207472616e7366657220746f20746865207a65726f206164604082015264647265737360d81b606082015260800190565b6020808252602a908201527f455243313135353a20696e73756666696369656e742062616c616e636520666f60408201526939103a3930b739b332b960b11b606082015260800190565b6040815260006116c16040830185611441565b82810360208401526116d38185611441565b95945050505050565b6000826116f957634e487b7160e01b600052601260045260246000fd5b500690565b600082516117108184602087016110f6565b9190910192915050565b6001600160a01b0386811682528516602082015260a06040820181905260009061174690830186611441565b82810360608401526117588186611441565b9050828103608084015261176c8185611126565b98975050505050505050565b60006020828403121561178a57600080fd5b81516104ba816110a7565b600060033d11156117ae5760046000803e5060005160e01c5b90565b600060443d10156117bf5790565b6040516003193d81016004833e81513d67ffffffffffffffff81602484011181841117156117ef57505050505090565b82850191508151818111156118075750505050505090565b843d87010160208285010111156118215750505050505090565b61183060208286010187611196565b509095945050505050565b60208082526028908201527f455243313135353a204552433131353552656365697665722072656a656374656040820152676420746f6b656e7360c01b606082015260800190565b6001600160a01b03868116825285166020820152604081018490526060810183905260a0608082018190526000906118bd90830184611126565b97965050505050505056fea264697066735822122031c8872a052cab59b76637fdcbbcae1e954a3a24bcd112886c24601a2b71624764736f6c634300080a0033",
    "sourcePath": "/home/guilherme/Documents/MyRepos/CryptoDoorGame/contracts/GameLogic.sol",
    "compiler": {
        "name": "solc",
        "version": "0.8.10+commit.fc410830"
    },
    "functionHashes": {
        "balanceOf(address,uint256)": "00fdd58e",
        "balanceOfBatch(address[],uint256[])": "4e1273f4",
        "getPlayerCancelationSessionsCount(address)": "38e4af64",
        "getPlayerLossesCount(address)": "24f21130",
        "getPlayerSessionsCount(address)": "d2193edc",
        "getPlayerWinsCount(address)": "c477620a",
        "hasRewardsToBeCollected(address)": "1a0943b2",
        "isApprovedForAll(address,address)": "e985e9c5",
        "isPlayerPlaying(address)": "a714fb60",
        "rawFulfillRandomness(bytes32,uint256)": "94985ddd",
        "safeBatchTransferFrom(address,address,uint256[],uint256[],bytes)": "2eb2c2d6",
        "safeTransferFrom(address,address,uint256,uint256,bytes)": "f242432a",
        "setApprovalForAll(address,bool)": "a22cb465",
        "supportsInterface(bytes4)": "01ffc9a7",
        "uri(uint256)": "0e89341c"
    },
    "gasEstimates": {
        "creation": {
            "codeDepositCost": "1279600",
            "executionCost": "infinite",
            "totalCost": "infinite"
        },
        "external": {
            "balanceOf(address,uint256)": "2695",
            "balanceOfBatch(address[],uint256[])": "infinite",
            "getPlayerCancelationSessionsCount(address)": "2621",
            "getPlayerLossesCount(address)": "2577",
            "getPlayerSessionsCount(address)": "infinite",
            "getPlayerWinsCount(address)": "2548",
            "hasRewardsToBeCollected(address)": "infinite",
            "isApprovedForAll(address,address)": "infinite",
            "isPlayerPlaying(address)": "2644",
            "rawFulfillRandomness(bytes32,uint256)": "infinite",
            "safeBatchTransferFrom(address,address,uint256[],uint256[],bytes)": "infinite",
            "safeTransferFrom(address,address,uint256,uint256,bytes)": "infinite",
            "setApprovalForAll(address,bool)": "26695",
            "supportsInterface(bytes4)": "567",
            "uri(uint256)": "infinite"
        },
        "internal": {
            "_collectRewards(address)": "infinite",
            "_getDoorResultKey(uint256,uint256,uint256,uint256)": "infinite",
            "_getNumberOfDoorByLevel(uint256)": "infinite",
            "_getPlayerMovesKey(uint256,uint256,uint256)": "infinite",
            "_getRewardsKey(uint256,uint256)": "infinite",
            "_leaveSession()": "infinite",
            "_play(uint256)": "infinite",
            "_startGameSession()": "infinite",
            "fulfillRandomness(bytes32,uint256)": "infinite"
        }
    }
}